BL51 BANKED LINKER/LOCATER V6.22                                                        02/01/2017  15:34:34  PAGE 1


BL51 BANKED LINKER/LOCATER V6.22, INVOKED BY:
C:\KEIL_V5\C51\BIN\BL51.EXE .\Objects\mss_Lab03a.obj TO .\Objects\mss_Lab03A PRINT (.\Listings\mss_Lab03A.m51) RAMSIZE (
>> 256)


INPUT MODULES INCLUDED:
  .\Objects\mss_Lab03a.obj (MSS_LAB03A)


LINK MAP OF MODULE:  .\Objects\mss_Lab03A (MSS_LAB03A)


            TYPE    BASE      LENGTH    RELOCATION   SEGMENT NAME
            -----------------------------------------------------

            * * * * * * *   D A T A   M E M O R Y   * * * * * * *
            REG     0000H     0008H     ABSOLUTE     "REG BANK 0"

            * * * * * * *   C O D E   M E M O R Y   * * * * * * *
            CODE    0000H     0021H     ABSOLUTE     



SYMBOL TABLE OF MODULE:  .\Objects\mss_Lab03A (MSS_LAB03A)

  VALUE           TYPE          NAME
  ----------------------------------

  -------         MODULE        MSS_LAB03A
  D:00F0H         SYMBOL        B
  C:001FH         SYMBOL        DONE
  C:000DH         SYMBOL        N_1
  C:0017H         SYMBOL        N_2
  C:0000H         SYMBOL        START
  C:0000H         LINE#         15
  C:0001H         LINE#         18
  C:0003H         LINE#         19
  C:0005H         LINE#         20
  C:0007H         LINE#         21
  C:0009H         LINE#         22
  C:000BH         LINE#         23
  C:000DH         LINE#         24
  C:000FH         LINE#         25
  C:0011H         LINE#         26
  C:0013H         LINE#         27
  C:0015H         LINE#         28
  C:0017H         LINE#         29
  C:0019H         LINE#         30
  C:001BH         LINE#         31
  C:001DH         LINE#         32
  C:001FH         LINE#         38
  -------         ENDMOD        MSS_LAB03A

******************************************************************************
* RESTRICTED VERSION WITH 0800H BYTE CODE SIZE LIMIT; USED: 0021H BYTE ( 1%) *
******************************************************************************

Program Size: data=8.0 xdata=0 code=33
BL51 BANKED LINKER/LOCATER V6.22                                                      02/01/2017  15:34:34  PAGE 2


LINK/LOCATE RUN COMPLETE.  0 WARNING(S),  0 ERROR(S)
