BL51 BANKED LINKER/LOCATER V6.22                                                        02/15/2017  15:05:56  PAGE 1


BL51 BANKED LINKER/LOCATER V6.22, INVOKED BY:
C:\KEIL_V5\C51\BIN\BL51.EXE .\Objects\mss_Lab05a.obj TO .\Objects\mss_Lab05 PRINT (.\Listings\mss_Lab05.m51) RAMSIZE (25
>> 6)


INPUT MODULES INCLUDED:
  .\Objects\mss_Lab05a.obj (MSS_LAB05A)


LINK MAP OF MODULE:  .\Objects\mss_Lab05 (MSS_LAB05A)


            TYPE    BASE      LENGTH    RELOCATION   SEGMENT NAME
            -----------------------------------------------------

            * * * * * * *   D A T A   M E M O R Y   * * * * * * *
            REG     0000H     0008H     ABSOLUTE     "REG BANK 0"

            * * * * * * *   C O D E   M E M O R Y   * * * * * * *
            CODE    0000H     0207H     ABSOLUTE     



SYMBOL TABLE OF MODULE:  .\Objects\mss_Lab05 (MSS_LAB05A)

  VALUE           TYPE          NAME
  ----------------------------------

  -------         MODULE        MSS_LAB05A
  C:0007H         SYMBOL        BACK
  C:0017H         SYMBOL        BAD_INPUT
  C:0026H         SYMBOL        DELAY
  C:002CH         SYMBOL        INNER
  D:00A0H         SYMBOL        LEDS
  C:002AH         SYMBOL        MIDDLE
  C:0012H         SYMBOL        NEXT
  C:0028H         SYMBOL        OUTER
  D:0090H         SYMBOL        P1
  D:00A0H         SYMBOL        P2
  C:0000H         SYMBOL        START
  D:0090H         SYMBOL        SWITCH
  C:0200H         SYMBOL        XCUBED_TABLE
  C:0000H         LINE#         18
  C:0003H         LINE#         19
  C:0005H         LINE#         20
  C:0007H         LINE#         21
  C:0009H         LINE#         22
  C:000BH         LINE#         24
  C:000EH         LINE#         25
  C:0010H         LINE#         26
  C:0012H         LINE#         27
  C:0013H         LINE#         28
  C:0015H         LINE#         29
  C:0017H         LINE#         44
  C:0018H         LINE#         46
  C:001AH         LINE#         47
  C:001CH         LINE#         48
  C:001EH         LINE#         50
BL51 BANKED LINKER/LOCATER V6.22                                                      02/15/2017  15:05:56  PAGE 2


  C:0020H         LINE#         51
  C:0022H         LINE#         52
  C:0024H         LINE#         54
  C:0025H         LINE#         56
  C:0026H         LINE#         71
  C:0028H         LINE#         72
  C:002AH         LINE#         73
  C:002CH         LINE#         74
  C:002EH         LINE#         75
  C:0030H         LINE#         76
  C:0032H         LINE#         78
  -------         ENDMOD        MSS_LAB05A

******************************************************************************
* RESTRICTED VERSION WITH 0800H BYTE CODE SIZE LIMIT; USED: 003AH BYTE ( 2%) *
******************************************************************************

Program Size: data=8.0 xdata=0 code=519
LINK/LOCATE RUN COMPLETE.  0 WARNING(S),  0 ERROR(S)
