A51 MACRO ASSEMBLER  MSS_LAB06B                                                           03/08/2017 16:09:33 PAGE     1


MACRO ASSEMBLER A51 V8.02c
OBJECT MODULE PLACED IN .\Objects\mss_Lab06b.obj
ASSEMBLER INVOKED BY: C:\Keil_v5\C51\BIN\A51.EXE mss_Lab06b.a51 SET(SMALL) DEBUG PRINT(.\Listings\mss_Lab06b.lst) OBJECT
                      (.\Objects\mss_Lab06b.obj) EP

LOC  OBJ            LINE     SOURCE

                       1     ; Source file: mss_Lab06b.a51
                       2     ; Michael S. Sargent 3/1/17
                       3     ; Interfacing ADC0804 and Sensors with the LCD
                       4     ; =============================================================================
                       5     ;       m a i n    p r o g r a m
                       6     ; -----------------------------------------------------------------------------
                       7     ;
                       8     ;The following code is designed to input a varying voltage from a light senstive
                       9     ;resistor into an ADC0804. That binary value will then be converted to an ASCII
                      10     ;string in ram, and the 3 digits between 000 and 255 will be displayed on the
                      11     ;LCD.
                      12     
                      13     
0000                  14     Start:
                      15     
0000                  16                     ORG 0000H                       ;Define program origination
                      17                             
  0080                18                     ADC EQU P0                      ;Assign meaningful label to P0
  0040                19                     ASCII_ADDRESS   EQU 40H         
                      20                     
0000 120088           21     LCDOUT: LCALL PWR_DELAY         ;15 mSec delay to allow the LCD to boot
0003 120069           22                     LCALL INIT                      ;Initialize with time delays
                      23                     
0006 7480             24     BEGIN:  MOV A, #080H            ;Set the address for where to display on the LCD
0008 12005A           25                     LCALL CMD                       ;Send 80 as a command to the LCD
000B 1137             26                     ACALL GET_ADC           ;Call the subroutine to get the ADC
000D 111A             27                     ACALL BINARY_TO_ASCII   ;Converst to ASCII
000F 7840             28                     MOV R0, #ASCII_ADDRESS  ;Set the DPTR to the ASCII string
                      29                     
                      30                     
0011 E6               31     LOOP:   MOV A, @R0                  ;Move along the ASCII string 
0012 60F2             32                     JZ BEGIN                        ;End of the string is denoted with a 0. If 
                             0
                      33                                                             ;jump to the end of the program
0014 12004B           34                     LCALL DAT                       ;Send the data to the screen
0017 08               35                     INC R0                          ;Point to the next value in the ASCII strin
                             g
0018 80F7             36                     SJMP LOOP                       ;Repeat until you reach 0
                      37     
                      38                     
                      39     
                      40     ; =============================================================================
                      41     ;       Subroutine
                      42     ;               BINARY_TO_ASCII
                      43     ; -----------------------------------------------------------------------------
                      44     ;INPUT - Binary number from P1
                      45     ;OUTPUT - ASCII equivalent to the binary number input from P1
                      46     ;This subroutine will read in a binary number from P1 to A. It will then
                      47     ;convert this value to ASCII and store that value in RAM.
                      48     
001A                  49     BINARY_TO_ASCII:
                      50             
001A 7843             51             MOV R0, #ASCII_ADDRESS+3
                      52             
001C 7600             53             MOV @R0, #0             ;End a terminating zero to the string
001E 18               54             DEC R0                  ;Decrement R0 to store the next value
001F 75F00A           55             MOV B, #10              ;Set B to 10 for division
A51 MACRO ASSEMBLER  MSS_LAB06B                                                           03/08/2017 16:09:33 PAGE     2

0022 84               56             DIV AB
                      57             
0023 43F030           58             ORL B, #30H             ;ORL the remainder with 30H to determine the ASCII value
0026 A6F0             59             MOV @R0, B              ;Store the ASCII value in R0
0028 18               60             DEC R0                  ;Decrement R0 to store the next value
                      61     
0029 75F00A           62             MOV B, #10              ;Set B to 10 for division
002C 84               63             DIV AB
                      64             
002D 43F030           65             ORL B, #30H             ;ORL the remainder with 30H to determine the ASCII value
0030 A6F0             66             MOV @R0, B              ;Store the ASCII value in R0
0032 18               67             DEC R0                  ;Decrement R0 to store the next value
0033 4430             68             ORL A, #30H             ;ORL the final digit with 30H to determine the ASCII value
0035 F6               69             MOV @R0, A              ;Store the ASCII value in R0
                      70                     
0036 22               71             RET
                      72     
                      73     ; =============================================================================
                      74     ;       Subroutine
                      75     ;               GET_ADC
                      76     ; -----------------------------------------------------------------------------
                      77     ;INPUT - Analog data from an exterior device
                      78     ;OUTPUT - Binary representation of the data that was read by the ADC
                      79     ;This subroutine reads analog data from the a connected device. It then uses the
                      80     ;ADC to convert this data from analog to digital, and returns a binary value
                      81     ;to the main progam. This binary value is stored in A
                      82     
0037                  83     GET_ADC:                
  00A5                84                     M_RD    BIT P2.5
  00A6                85                     M_WR    BIT P2.6
  00A7                86                     INTR    BIT P2.7
                      87                             
0037 7580FF           88                     MOV ADC, #0FFH          ;Set ADC ready for input
003A D2A7             89                     SETB    INTR
                      90                     
003C C2A6             91                     CLR M_WR                        ;WR = 0
003E D2A6             92                     SETB M_WR                       ;Start the conversion with an L-to-H on WR
0040 20A7FD           93     HERE:   JB INTR, HERE           ;Wait for the conversion to end
0043 C2A5             94                     CLR M_RD                        ;Enable RD once the conversion is done
0045 00               95                     NOP
0046 E580             96                     MOV A, ADC                      ;Read the data and store it in A           
                                  
0048 D2A5             97                     SETB M_RD                       ;Set RD for next loop
                      98     
004A 22               99                     RET
                     100     ;***********************************************************************
                     101     ; File: LCDOUT4_Subroutines.a51
                     102     ; This file contains the 5 subroutines used by LCDOUT 
                     103     ; DAT sends a data byte that is in A to the LCD with RS=1
                     104     ; CMD sends a data byte that is in A to the LCD with RS=1
                     105     ; INIT sends several bytes to the CMD subroutine for startup
                     106     ; PWR_DELAY waits 15.218 mS for startup
                     107     ; WAIT_LCD waits for the LCD Busy Flag to go low
                     108     ; PWR_DELAY and WAIT_LCD updated 10/5/16 
                     109     ;***********************************************************************
                     110     
                     111     ; IO Port and bits naming
                     112       
  0090               113     LCD     EQU P1          ; Data lines on LCD connect to this IO Port
                     114                                             ; "LCD" may be changed to another port, if necessar
                             y
  0097               115     BZYFLG  BIT P1.7        ; Can read this from LCD to see if its still busy
                     116                                             ; ***Change this if data lines not on Port 1!!!***
                     117     
  00A0               118     RS      BIT P2.0        ; Set this control bit high to send data
  00A1               119     RW      BIT P2.1        ; Set this bit high to read (status) from LCD
A51 MACRO ASSEMBLER  MSS_LAB06B                                                           03/08/2017 16:09:33 PAGE     3

  00A2               120     EN      BIT P2.2        ; This is the clock into the LCD. Take high to ready               
                                          
                     121                                     ; the LCD
                     122                                     ; Then take low to clock data or cmd onto the data         
                                                  
                     123                                     ; lines of LCD
                     124     
                     125     ;** DAT Subroutine. Sends Data byte to LCD because RS is High****
                     126     ;       Input: ASCII character in register A 
                     127     ;       How it works: sets EN hi to prepare; sets RW low to write to LCD
                     128     ;       RS is high to indicate that this is Data
                     129     ;       Places the data byte on Port "LCD" and gives clock the falling edge 
                     130     ;       on EN which loads one data byte to the LCD.
                     131               
004B D2A2            132     DAT:    SETB EN         ; Prepare for H->L PULSE ON E 
004D D2A0            133             SETB RS                 ; RS=1 meand sending DATA
004F C2A1            134             CLR RW                  ; RW=0 for WRITE
0051 F590            135             MOV LCD,A               ; Place data byte onto data pins of LCD
0053 C2A2            136             CLR EN                  ; Falling edge on EN pin writes data byte in A to LCD
0055 00              137             NOP                             ; To give a bit of time. Documentation suggested
0056 120091          138             LCALL WAIT_LCD  ; Allow LCD to digest data byte
0059 22              139             RET
                     140     
                     141     ;***** CMD Subroutine.Sends Command byte to LCD because RS is High****
                     142     ;       Input: a command character in register A 
                     143     ;       How it works: sets EN hi to prepare; sets RW low to write to LCD
                     144     ;       RS is low to indicate to LCD that this is a command
                     145     ;       Places the command byte on Port "LCD" and gives clock the falling edge 
                     146     ;       on EN which loads one data byte to the LCD.
                     147      
005A D2A2            148     CMD:    SETB EN
005C C2A0            149             CLR RS
005E C2A1            150             CLR RW
0060 F590            151             MOV LCD,A
0062 C2A2            152         CLR EN
0064 00              153         NOP
0065 120091          154         LCALL WAIT_LCD
0068 22              155             RET
                     156             
                     157     ;******Initialize LCD Subroutine****************************
                     158     ; "The book" says we need to send 38H three times if there 
                     159     ; are only 4 data lines being used from microcontroller to the LCD
                     160             
0069 7438            161     INIT:   MOV A,#038H     ; INITIALIZE, 2-LINES, 5X7 MATRIX.      
006B 12005A          162             LCALL  CMD
                     163                     
006E 7438            164             MOV A,#038H     ; INITIALIZE, 2-LINES, 5X7 MATRIX.
0070 12005A          165             LCALL  CMD      ; Need this 3 times if 4 data lines
                     166             
0073 7438            167             MOV A,#038H     ; INITIALIZE, 2-LINES, 5X7 MATRIX.
0075 12005A          168             LCALL  CMD              
                     169                     
0078 740E            170             MOV A,#0EH              ;  VISIBLE CURSOR ON;
007A 12005A          171             LCALL  CMD
007D 7401            172             MOV A,#01H              ; CLEAR LCD SCREEN
007F 12005A          173             LCALL  CMD
0082 7406            174             MOV A,#06H              ; SHIFT CURSOR RIGHT
0084 12005A          175             LCALL  CMD
0087 22              176             RET
                     177                     
                     178     ;********PWR_Delay (long) Subroutine***************************
0088                 179     PWR_DELAY:      ; Power on delay. 361.6896 nS * 42075 = 15.218 mSec
                     180                             ; Maybe longer than needed but only once at startup.
                     181                
0088 7CA5            182                     MOV R4,#165D
008A 7BFF            183     OUTER:  MOV R3,#255D
A51 MACRO ASSEMBLER  MSS_LAB06B                                                           03/08/2017 16:09:33 PAGE     4

008C DBFE            184     INNER:  DJNZ R3,INNER
008E DCFA            185                     DJNZ R4,OUTER
0090 22              186             RET
                     187         
                     188     ;*******Wait for Busy Flag to be low Subroutine  ********
                     189     ; Instead of waiting an estimated amount of time for LCD to be done
                     190     ;  after sending a command or data byte, we can read the LCD's busy 
                     191     ; flag on P1 pin 7 and wait for it to become zero. This is called by
                     192     ; the CMD or DAT subroutines.
                     193     
0091                 194     WAIT_LCD:       ; We have sent something to th LCD. Now read the busy
                     195                             ; flag to see if LCD is done (not busy)
                     196     
0091 D297            197             SETB BZYFLG     ; enable input on busy flag bit. P1.7 
0093 C2A0            198             CLR RS          ; P2.0 low for read command
0095 D2A1            199             SETB RW         ; P2.1 high to read status
0097 C2A2            200             CLR EN          ; per Mazidi
0099 00              201             NOP                     ; leave EN low for a few cycles
009A 00              202             NOP
009B 00              203             NOP
009C 00              204             NOP
009D D2A2            205             SETB EN         ; rising edge on EN reads
                     206             
009F 7590FF          207             MOV LCD, #0FFh  ; Write command to LCD for Read status
                     208     
00A2 E590            209             MOV A, LCD                      ;       Read the status from LCD
00A4 20E7EA          210             JB ACC.7, WAIT_LCD      ; If ACC.7 high, LCD still busy
00A7 C2A1            211             CLR RW                  ; Return to write mode
00A9 22              212             RET 
                     213     
                     214     END
A51 MACRO ASSEMBLER  MSS_LAB06B                                                           03/08/2017 16:09:33 PAGE     5

SYMBOL TABLE LISTING
------ ----- -------


N A M E             T Y P E  V A L U E   ATTRIBUTES

ACC. . . . . . . .  D ADDR   00E0H   A   
ADC. . . . . . . .  D ADDR   0080H   A   
ASCII_ADDRESS. . .  N NUMB   0040H   A   
B. . . . . . . . .  D ADDR   00F0H   A   
BEGIN. . . . . . .  C ADDR   0006H   A   
BINARY_TO_ASCII. .  C ADDR   001AH   A   
BZYFLG . . . . . .  B ADDR   0090H.7 A   
CMD. . . . . . . .  C ADDR   005AH   A   
DAT. . . . . . . .  C ADDR   004BH   A   
EN . . . . . . . .  B ADDR   00A0H.2 A   
GET_ADC. . . . . .  C ADDR   0037H   A   
HERE . . . . . . .  C ADDR   0040H   A   
INIT . . . . . . .  C ADDR   0069H   A   
INNER. . . . . . .  C ADDR   008CH   A   
INTR . . . . . . .  B ADDR   00A0H.7 A   
LCD. . . . . . . .  D ADDR   0090H   A   
LCDOUT . . . . . .  C ADDR   0000H   A   
LOOP . . . . . . .  C ADDR   0011H   A   
M_RD . . . . . . .  B ADDR   00A0H.5 A   
M_WR . . . . . . .  B ADDR   00A0H.6 A   
OUTER. . . . . . .  C ADDR   008AH   A   
P0 . . . . . . . .  D ADDR   0080H   A   
P1 . . . . . . . .  D ADDR   0090H   A   
P2 . . . . . . . .  D ADDR   00A0H   A   
PWR_DELAY. . . . .  C ADDR   0088H   A   
RS . . . . . . . .  B ADDR   00A0H.0 A   
RW . . . . . . . .  B ADDR   00A0H.1 A   
START. . . . . . .  C ADDR   0000H   A   
WAIT_LCD . . . . .  C ADDR   0091H   A   


REGISTER BANK(S) USED: 0 


ASSEMBLY COMPLETE.  0 WARNING(S), 0 ERROR(S)
