A51 MACRO ASSEMBLER  MSS_LAB01                                                            01/18/2017 15:42:28 PAGE     1


MACRO ASSEMBLER A51 V8.02c
OBJECT MODULE PLACED IN .\Objects\mss_Lab01.obj
ASSEMBLER INVOKED BY: C:\Keil_v5\C51\BIN\A51.EXE mss_Lab01.a51 SET(SMALL) DEBUG PRINT(.\Listings\mss_Lab01.lst) OBJECT(.
                      \Objects\mss_Lab01.obj) EP

LOC  OBJ            LINE     SOURCE

                       1     ; Source file: mss_Lab01B.a51
                       2     ; Michael S. Sargent 1/18/17
                       3     ; First lab program to introduce Keil uVision 5
                       4     ; =============================================================================
                       5     ;       m a i n    p r o g r a m
                       6     ; -----------------------------------------------------------------------------
                       7     ;   
                       8     ; A simple loop is executed.   The accumulator is cleared and the Carry flag
                       9     ; is set (made 1).  Register R1 is used as a loop counter, set equal to 3.
                      10     ; The loop (executed 3 times) rotates the accumulator with the Carry Flag to
                      11     ; the left.
                      12     ; Then a new loop is executed the maximum number of times and one more instruction
                      13     ; follows before starting over.
                      14     
0000                  15     Start:
0000 790A             16                     MOV R1, #10             ; Initialize R1 as loop counter
0002 E4               17                     CLR A                   ; clear accumulator (make 0)
0003 D3               18                     SETB C                  ; set Carry Flag (make C=1)
                      19     
0004 7B03             20                     MOV R3, #03             ; Move 03 to register 3
0006 7477             21                     MOV A, #77h
0008 F550             22                     MOV 50h, A              ; Move 77 hex to RAM address 50h
000A E4               23                     CLR A
                      24     
000B 75F00F           25                     MOV B, #0Fh             ; Move 00001111 to register B
                      26     
000E                  27     loop:
000E 33               28                     RLC A                   ; rotate acc left through carry flag
000F D9FD             29                     DJNZ R1, loop           ; repeat 3 times
                      30                                             ; --- loop ends here -------------
0011 7800             31                     MOV R0, #0              ; Set a different loop counter to zero
                      32     
0013 D8FE             33     loop2:  DJNZ R0, loop2  ; How many times will it loop
0015 0A               34                     INC R2                  ; Something to do after loop
                      35                     
0016 80E8             36                     SJMP Start              ; repeat the entire program...
                      37                                             ; ... this is an endless loop!
                      38                     END                     ; ASSEMBLER DIRECTIVE says no more code
                                               
                             ; --- end of file WLF_lab01B.a51 ------
A51 MACRO ASSEMBLER  MSS_LAB01                                                            01/18/2017 15:42:28 PAGE     2

SYMBOL TABLE LISTING
------ ----- -------


N A M E             T Y P E  V A L U E   ATTRIBUTES

B. . . . . . . . .  D ADDR   00F0H   A   
LOOP . . . . . . .  C ADDR   000EH   A   
LOOP2. . . . . . .  C ADDR   0013H   A   
START. . . . . . .  C ADDR   0000H   A   


REGISTER BANK(S) USED: 0 


ASSEMBLY COMPLETE.  0 WARNING(S), 0 ERROR(S)
