BL51 BANKED LINKER/LOCATER V6.22                                                        04/19/2017  16:01:17  PAGE 1


BL51 BANKED LINKER/LOCATER V6.22, INVOKED BY:
C:\KEIL_V5\C51\BIN\BL51.EXE .\Objects\mss_Lab11a.obj TO .\Objects\mss_Lab11A PRINT (.\Listings\mss_Lab11A.m51) RAMSIZE (
>> 256)


INPUT MODULES INCLUDED:
  .\Objects\mss_Lab11a.obj (MSS_LAB11A)


LINK MAP OF MODULE:  .\Objects\mss_Lab11A (MSS_LAB11A)


            TYPE    BASE      LENGTH    RELOCATION   SEGMENT NAME
            -----------------------------------------------------

            * * * * * * *   D A T A   M E M O R Y   * * * * * * *
            REG     0000H     0008H     ABSOLUTE     "REG BANK 0"

            * * * * * * *   C O D E   M E M O R Y   * * * * * * *
            CODE    0000H     0085H     ABSOLUTE     



SYMBOL TABLE OF MODULE:  .\Objects\mss_Lab11A (MSS_LAB11A)

  VALUE           TYPE          NAME
  ----------------------------------

  -------         MODULE        MSS_LAB11A
  D:00F0H         SYMBOL        B
  C:0068H         SYMBOL        D1
  C:0066H         SYMBOL        DELAY
  C:006BH         SYMBOL        DISPLAY
  C:0000H         SYMBOL        MAIN
  C:0017H         SYMBOL        OV1
  D:0090H         SYMBOL        P1
  C:007FH         SYMBOL        S1
  D:0099H         SYMBOL        SBUF
  D:0098H         SYMBOL        SCON
  C:007DH         SYMBOL        SERIAL
  C:0000H         SYMBOL        START
  D:008DH         SYMBOL        TH1
  B:0098H.1       SYMBOL        TI
  D:0089H         SYMBOL        TMOD
  B:0088H.6       SYMBOL        TR1
  C:0000H         LINE#         15
  C:0003H         LINE#         16
  C:0006H         LINE#         17
  C:0009H         LINE#         18
  C:000BH         LINE#         19
  C:000DH         LINE#         21
  C:000FH         LINE#         22
  C:0011H         LINE#         23
  C:0012H         LINE#         26
  C:0014H         LINE#         27
  C:0016H         LINE#         28
  C:0017H         LINE#         31
  C:0019H         LINE#         32
BL51 BANKED LINKER/LOCATER V6.22                                                      04/19/2017  16:01:17  PAGE 2


  C:001BH         LINE#         33
  C:001DH         LINE#         34
  C:001EH         LINE#         35
  C:0020H         LINE#         36
  C:0022H         LINE#         37
  C:0024H         LINE#         38
  C:0026H         LINE#         39
  C:0027H         LINE#         40
  C:0029H         LINE#         41
  C:002BH         LINE#         42
  C:002DH         LINE#         43
  C:002FH         LINE#         44
  C:0030H         LINE#         50
  C:0032H         LINE#         54
  C:0034H         LINE#         55
  C:0036H         LINE#         56
  C:0038H         LINE#         57
  C:003AH         LINE#         58
  C:003CH         LINE#         59
  C:003EH         LINE#         60
  C:0040H         LINE#         61
  C:0041H         LINE#         62
  C:0043H         LINE#         63
  C:0045H         LINE#         64
  C:0047H         LINE#         65
  C:0049H         LINE#         66
  C:004AH         LINE#         67
  C:004CH         LINE#         68
  C:004EH         LINE#         69
  C:0050H         LINE#         70
  C:0052H         LINE#         71
  C:0054H         LINE#         72
  C:0055H         LINE#         73
  C:0057H         LINE#         74
  C:0059H         LINE#         75
  C:005BH         LINE#         76
  C:005DH         LINE#         77
  C:005FH         LINE#         78
  C:0061H         LINE#         79
  C:0063H         LINE#         80
  C:0066H         LINE#         85
  C:0068H         LINE#         86
  C:006AH         LINE#         87
  C:006BH         LINE#         91
  C:006DH         LINE#         92
  C:006EH         LINE#         93
  C:0070H         LINE#         94
  C:0072H         LINE#         95
  C:0074H         LINE#         96
  C:0076H         LINE#         97
  C:0078H         LINE#         98
  C:007AH         LINE#         99
  C:007CH         LINE#         100
  C:007DH         LINE#         104
  C:007FH         LINE#         105
  C:0082H         LINE#         106
  C:0084H         LINE#         107
BL51 BANKED LINKER/LOCATER V6.22                                                      04/19/2017  16:01:17  PAGE 3


  -------         ENDMOD        MSS_LAB11A

******************************************************************************
* RESTRICTED VERSION WITH 0800H BYTE CODE SIZE LIMIT; USED: 0085H BYTE ( 6%) *
******************************************************************************

Program Size: data=8.0 xdata=0 code=133
LINK/LOCATE RUN COMPLETE.  0 WARNING(S),  0 ERROR(S)
